:10000000000001203D020000950200009702000060
:10001000990200009B0200009D0200000000000009
:100020000000000000000000000000009F0200002F
:10003000A102000000000000A3020000A5020000D1
:10004000C9A60000AB020000ADBE0000AF02000078
:10005000B1020000B3020000B5020000B7020000C8
:10006000B9020000BB020000BD020000BF02000098
:10007000C1020000C3020000C5020000C702000068
:10008000C90200005D240000CD020000CF02000084
:100090009D240000D3020000D5020000D70200001A
:1000A000D9020000DB020000DD020000DF020000D8
:1000B000E1020000E3020000A7020000A702000026
:1000C000E5020000E7020000E9020000EB02000088
:0C00D000ED020000EF020000F102000051
:1000DC00364937480A1A02D0072291438D463549D2
:1000EC0035480A1A06D00722914381F30988022267
:1000FC0082F3148831483249324A00F045F83248CC
:10010C003249334A00F040F832483349334A00F060
:10011C003BF833483349344A00F036F83348344915
:10012C00344A00F031F834483449354A00F02CF8A0
:10013C0034483549354A00F027F83548354900220E
:10014C0000F02DF834483549002200F028F83448E6
:10015C003449091A082903DB0022026004300160CB
:10016C00314A90471F482049884205D00268043024
:10017C0003B4904703BCF7E700208646EC4600200A
:10018C0000212A4A9047FEE7884207D0521A05D030
:10019C00037801300B700131013AF9D17047884274
:1001AC0002D002700130FAE7704700000000012015
:1001BC0000F800200000012000000120581101006F
:1001CC0094000020B8010020F4020000F4020000AA
:1001DC0058EB0000581101009400002094000020FE
:1001EC008CEC00008CEC00008CEC00008CEC000023
:1001FC008CEC00008CEC00008CEC00008CEC000013
:10020C00581101007C120100B8010020B801002037
:10021C00B8010020280E0020280E00202C0E0020F3
:10022C002C0E00202C100020610200007DCB000061
:10023C000F484FF00701884385460E4880470E480B
:10024C00016841F470010160BFF34F8FBFF36F8FF2
:10025C00FFF73EBF09480A490A4A884207D0521A9A
:10026C0005D0037801300B700131013AF9D1704798
:10027C000000012001CF000088ED00E0F8EB000049
:10028C000000002094000020FEE7FEE7FEE7FEE7FA
:10029C00FEE7FEE7FEE7FEE7FEE7FEE7FEE7FEE72A
:1002AC00FEE7FEE7FEE7FEE7FEE7FEE7FEE7FEE71A
:1002BC00FEE7FEE7FEE7FEE7FEE7FEE7FEE7FEE70A
:1002CC00FEE7FEE7FEE7FEE7FEE7FEE7FEE7FEE7FA
:1002DC00FEE7FEE7FEE7FEE7FEE7FEE7FEE7FEE7EA
:0802EC00FEE7FEE7FEE700BF9C
:1002F40000487047200E00207047704770477047D1
:1003040070477047704770470DF038BD0DF041BD20
:1003140000B583B001900091019B1B681B68009994
:100324000198984700BF03B05DF804FB00B583B0A3
:100334000190019B1B685B680198984700BF03B05C
:100344005DF804FB82B001900B468DF80330019BED
:100354009DF803201A7200BF02B0704782B001906A
:10036400019B1B7A184602B0704782B00190019B32
:1003740001225A7200BF02B0704782B00190019B03
:1003840000225A7200BF02B0704782B00190019BF4
:100394005B7A184602B0704710B487B001900091A0
:1003A400019B009A53E8004F44EA020043E800012D
:1003B40091F0000FF6D1059404900391049B184624
:1003C40007B05DF8044B704710B487B001900091FA
:1003D400019B009A53E8004F04EA020043E800013D
:1003E40091F0000FF6D1059404900391059B1846F3
:1003F40007B05DF8044B704700B583B0019001214C
:100404000198FFF7C9FF0346184603B05DF804FBE3
:1004140000B583B0019000210198FFF7D5FF034692
:10042400184603B05DF804FB00B58BB00190364B61
:10043400FF229A60344B00221A60334B00225A6028
:10044400314B0022C3F818242F4B0022C3F8142484
:100454002D4B002283F81C242C4809F061F90690E6
:10046400069B002B01D0069B4AE0294A294BD31A4C
:10047400DB080593002309933DE000230793002341
:1004840008931DE0099A089B9A4216D0099BDB0049
:10049400204A13441B680493089BDB001D4A134441
:1004A4001B6803931422039904980DF00BFB034675
:1004B400002B02DD079B01330793089B013308934C
:1004C400089A059B9A42DDD3099A13465B001344AC
:1004D4009B001A46104B13440293029B00225A605D
:1004E400099B9AB2029B1A80079B9AB2029B5A807C
:1004F400099B01330993099A059B9A42BDD30023B2
:1005040018460BB05DF804FB880200208CEC000058
:10051400F8EB0000C8EB00004C000020024A034B3B
:10052400D31ADB0818467047F8EB0000C8EB00004C
:1005340000B587B001900B468DF803309DF8033069
:10054400002B23D0FFF7EAFF04900023059317E064
:10055400059A13465B0013449B001A460E4B134442
:100564000393039B5B881A46019B1B689A4204D140
:10057400019B059A1A60002309E0059B013305934A
:10058400059A049B9A42E3D3052300E0002318460E
:1005940007B05DF804FB00BF4C00002000B585B037
:1005A40001900B468DF803309DF8032001AB1146F2
:1005B4001846FFF7BDFF0346002B07D1019BDB0064
:1005C400054A13440393039B1B6800E00023184669
:1005D40005B05DF804FB00BFC8EB000084B00190D7
:1005E4000B468DF80330019BDB00174A134402933A
:1005F4009DF80330013B032B1CD801A252F823F0D1
:10060400150600001D060000250600002F06000048
:1006140002238DF80F3011E004238DF80F300DE024
:10062400029B1B798DF80F3008E0029B5B798DF8F3
:100634000F3003E000238DF80F3000BF9DF80F301A
:10064400184604B0704700BFC8EB000086B00190A4
:10065400002305930023049311E00722049B9A408E
:10066400019B1A40049B22FA03F30393039A059B0C
:100674009A4201D9039B0593049B03330493049B7F
:10068400092BEAD9059B184606B0704700B587B018
:100694000390029113468DF80730029A13465B00CB
:1006A40013449B001A46164B13440593059B996803
:1006B400039A13465B001344072202FA03F3DB4355
:1006C40001EA0302059B9A60059B99689DF807302F
:1006D40003F00700039A13465B00134400FA03F384
:1006E40041EA0302059B9A60059B9B681846FFF745
:1006F400ADFF0246059B5A6000BF07B05DF804FBDE
:100704004C00002000B589B00390029111461A46AE
:100714000B468DF8073013468DF8063000238DF80C
:100724001F309DF80630002B20D09DF8072002AB27
:1007340011461846FFF7FCFE0346002B30D1029AFF
:1007440013465B0013449B001A46184B134406934C
:10075400069B9968039A13465B00134421FA03F33A
:10076400DBB203F007038DF81F3019E09DF8063063
:1007740083F00103DBB2002B12D09DF8072002ABFB
:1007840011461846FFF7D4FE0346002B08D1029BFE
:10079400DB00074A13440593059B9B798DF81F30B2
:1007A4009DF81F30184609B05DF804FB4C0000208A
:1007B400C8EB000000B589B04148FFF71DFE414871
:1007C400FFF71AFE404B5B6807933F4B9B6804930B
:1007D400079A049B134002339B003B4A134404339F
:1007E40006931BE0079B01330793069B5B88C3F3C7
:1007F40089139BB21A46069B1B88C3F389139BB2C9
:1008040013441A46079B13440793079A049B134007
:1008140002339B002C4A134404330693069B1B7833
:1008240003F00303DBB2002BDCD00023059311E0BB
:10083400059B9B006A461A44079B591C079104991F
:100844000B40214902339B000B445B681360059BFA
:1008540001330593059B012BEAD99DF80030C3F3BE
:100864000103DBB2012B0CD0022B14D1BDF80230F2
:10087400C3F389139BB203339B08079A134407936A
:100884000FE0BDF80030C3F38313DBB21A46079BB5
:100894001344079305E00D4940F24D1003F01EFF89
:1008A40000BF0848FFF7B4FD0390039B002B02D060
:1008B400054A079B536000BF09B05DF804FB00BF05
:1008C400A00600209C06002088020020B0EC000056
:1008D40010B586B00390029101920093039B1B0C08
:1008E400ADF81630BDF81640FFF718FE03469C42DB
:1008F40004D325494FF4B27003F0F0FE009B5A1C58
:10090400089B1340BDF81620204902339B000B447A
:100914005A60009A089B134002339B001B4A1344FD
:1009240004330493039B03F01003002B14BF01232F
:100934000023D9B2049A137861F382031370039BE2
:10094400DBB203F00703D9B2049A137861F3C50349
:100954001370019BDBB203F00F03D9B2049A13881E
:1009640061F389131380029BC3F31501049A13687E
:1009740061F39F231360049A1378012161F3010347
:10098400137000BF06B010BDB0EC00008802002058
:1009940000B589B001900091019B023306930223B4
:1009A400059301238DF81330002001F04BFE214BF9
:1009B4001A68009B1A601F4B9A681E4B59681D4B9E
:1009C4001B68CB1A134401330793069A059B1344FF
:1009D40003930BE0FFF7EEFE164B9A68154B59682C
:1009E400144B1B68CB1A134401330793039A079BD8
:1009F4009A42EFD80F4B1A680E4B9B681340023390
:100A04009B000C4A134404330293029A137843F074
:100A140003031370074B1A68069B1344054A1360BB
:100A2400002001F023FE9DF81330184609B05DF84C
:100A340004FB00BF8802002000B58BB00590049130
:100A4400039202931F4B9B68079306AB19460298C7
:100A5400FFF79EFF0346002B24D0069B0233099325
:100A64000023089311E0099B5A1C0992079A13402A
:100A7400089A920003990A441268124902339B00AF
:100A84000B445A60089B01330893089A029B9A42CC
:100A9400E9D3069A079B00931346029A0499059892
:100AA400FFF716FF074B93F81C34002B05D000BF4B
:100AB40000F064F80346002BFAD100BF0BB05DF8D8
:100AC40004FB00BF8802002000B583B001900091B0
:100AD4000023002200990198FFF7AEFF00BF03B086
:100AE4005DF804FB00B587B0039002910192019B6D
:100AF400059305AA012302990398FFF79DFF00BF00
:100B040007B05DF804FB00B587B003900291019231
:100B14000093019B0493009B059304AA022302996A
:100B24000398FFF789FF00BF07B05DF804FB00B529
:100B340089B00390029101920093019B0493009B5E
:100B440005930A9B06930B9B079304AA042302991B
:100B54000398FFF771FF00BF09B05DF804FB0000C4
:100B6400054B5A68044B1B689A420CBF01230023AF
:100B7400DBB21846704700BF8802002000B59BB066
:100B8400FFF7EEFF0346002B01D00023CDE19D4B80
:100B94000022C3F81824BFF34F8F9A4B5B68199354
:100BA400984B9B681193199A119B134002339B0035
:100BB400944A134404331893002317930023169381
:100BC400002315931BE0199B01331993189B5B8831
:100BD400C3F389139BB21A46189B1B88C3F389136A
:100BE4009BB213441A46199B13441993199A119BE7
:100BF400134002339B00834A134404331893189B15
:100C04001B7803F00303DBB2002BDCD00023149326
:100C140011E0149B9B0001AA1A44199B591C1991B9
:100C240011990B40774902339B000B445B681360B6
:100C3400149B01331493149B012BEAD99DF80430BF
:100C440003F00303DBB2022B40F09C80BDF80630B6
:100C5400C3F389139BB20F93BDF80630C3F3891312
:100C64009BB2502BA8BF50230E930E9B9BB2C3F391
:100C740009039AB2BDF8063062F38F13ADF806305B
:100C84000E9B08330D939DF80430C3F3C203DBB20B
:100C940015930D995C4808F04EFD1790179B002B97
:100CA40000F0E380179808F0D6FD01A9169B0822EE
:100CB400179808F079FE169B08331693199BDA43AC
:100CC400119B134001339B000C930E9A0C9B9A4288
:100CD40042D90C9B002B08D0199A119B1340023364
:100CE4009B00484A1344043300E0484B0B930C9B8D
:100CF400002B02D00C9BDBB201E00E9BDBB28DF823
:100D04002B300C9B002B01D0404B00E000230993B7
:100D14000C9B002B06D00E9BDAB20C9BDBB2D31AD1
:100D2400DBB200E000238DF823309DF82B20169BC6
:100D34000B99179808F038FE9DF82B30169A134437
:100D44001693099B002B16D09DF82320169B099916
:100D5400179808F029FE0EE0199A119B13400233EC
:100D64009B00284A134404330793169B0E9A079951
:100D7400179808F019FE0F9B03339B08199A134424
:100D8400199372E09DF8043003F00303DBB2012BE6
:100D94005DD1BDF80430C3F38313DBB2062B28BF47
:100DA4000623DBB203F00F03DAB2BDF8043062F3BA
:100DB4008913ADF80430BDF80430C3F38313DBB2F8
:100DC400023310939DF80430C3F3C203DBB21593CE
:100DD400109B9B0019460C4808F0ADFC1790179B1C
:100DE400002B42D0179808F036FD01A9169B082263
:100DF400179808F0D9FD169B083316930023149313
:100E04001BE000BF880200208CEC0000940200204C
:100E1400199B5A1C1992119A134002339B00454A9C
:100E24001344191D169B0422179808F0BDFD169B48
:100E340004331693149B01331493BDF80430C3F3A5
:100E44008313DBB21A46149B9A42E1D80DE09DF855
:100E5400043003F00303DBB2032B06D1354BD3F884
:100E64001834002B01D100235FE0179B002B56D0D0
:100E7400304BD3F8103413932E4BD3F81834002B83
:100E840039D0179808F0F6FC49E000238DF84B3070
:100E94001398FFF77AFA0346002B21D01398FFF733
:100EA4005DFA03468DF81B30029A13465B00134427
:100EB4009B001A46204B13449B6805939DF81B2006
:100EC40013465B001344059A22FA03F303F0070365
:100ED4000493049A159B9A4202D301238DF84B3054
:100EE4009DF84B30002B03D017991398FFF710FA95
:100EF400139B5B681393139B002BC6D1179808F0C0
:100F0400B9FC002001F09EFB0A4BD3F81834002BE7
:100F140002D1084A199B5360002001F0A7FBFFF798
:100F24001FFE034683F00103DBB218461BB05DF8D5
:100F340004FB00BF880200204C00002000B585B0EF
:100F44000023039322E0164BD3F8103402930123B9
:100F54008DF807300EE00298FFF700FA03461A46B0
:100F6400039B9A4203D100238DF8073005E0029BCE
:100F74005B680293029B002BEDD19DF80730002B98
:100F840001D0039B07E0039B01330393039B092BCD
:100F9400D9DD4FF0FF33184605B05DF804FB00BF00
:100FA4008802002000B587B001900B468DF803300D
:100FB400FFF7C4FF0490049BB3F1FF3F01D1049BEE
:100FC40047E0049BDBB219460198FFF7BBF9234BBA
:100FD400D3F81034002B07D1204A019BC2F81034F7
:100FE400019B00225A600AE01C4BD3F810345A6863
:100FF400019B5A60194BD3F81034019A5A600023AC
:1010040005931FE00498002300220599FFF77AFB5B
:1010140003468DF80F309DF803209DF80F3093425E
:1010240028BF13468DF80E300198FFF797F9034651
:1010340018469DF80E301A460599FFF727FB059BC5
:1010440001330593FFF76AFA0246059B9A42D9D801
:10105400049B184607B05DF804FB00BF880200201B
:1010640000B583B00C4BD3F8103401930A4B012222
:1010740083F81C2408E00198FFF777F90198FFF73B
:1010840055F9019B5B680193019B002BF3D100BFD1
:1010940003B05DF804FB00BF8802002082B0019019
:1010A400019B9B6893F83D31C3F34003DBB2002BF3
:1010B40014BF01230023DBB2184602B070470000BE
:1010C40010B58CB0079006910592FFF727FA0A90A5
:1010D400079BDB681B7A0993079BDB681846FFF7BD
:1010E40054F9034683F00103DBB2002B04D02B4AEE
:1010F4000221079806F07CFA294B2A4A082107980E
:1011040006F076FA284A0821079806F071FA0023B7
:101114000B933CE0012301220B990998FFF7F2FAA3
:1011240003468DF82330002301220B990998FFF719
:10113400E9FA03468DF822309DF82230032B28BFAC
:1011440003238DF8213001210B98FFF727FA044679
:101154009DF82330154A52F823309DF82120134975
:1011640051F822209DF821009DF82210884201D2D6
:101174000F4900E00F4902910192009323460E4A61
:101184000821079806F034FA0B9B01330B930B9A52
:101194000A9B9A42BED300BF0CB010BD48ED0000BC
:1011A4005CED000068ED000088ED00009400002074
:1011B400B8ED0000BCED0000C0ED000000B587B044
:1011C40001900091FFF7AAF904900023059313E01E
:1011D40000210598FFF7E2F9039020220199039872
:1011E4000CF070FC0346002B03D1009B059A1A6097
:1011F40006E0059B01330593059A049B9A42E7D3C5
:10120400059A049B9A4214BF01230023DBB21846BB
:1012140007B05DF804FB00B587B003900291134654
:101224008DF807300023002202990398FFF76AFA29
:1012340003468DF817309DF807209DF817309A4221
:1012440001D9002307E09DF807301A460299039854
:10125400FFF71CFA0123184607B05DF804FB0000F1
:1012640000B58BB0039002910192039BDB681B7A5B
:10127400059300238DF81B30029B002B00F0C880DF
:10128400019B1B680722644918460CF01BFC0346AB
:10129400002B39D1029B012B05D1604A022103980E
:1012A40006F0A6F9B4E0029B022B02D101238DF8CB
:1012B4001B300023079310E0019B04331868584A3D
:1012C400079B52F823300A2219460CF0FBFB034615
:1012D400002B06D0079B01330793079B042BEBD904
:1012E40000E000BF079B052B08D1019B04331B685A
:1012F4004C4A0221039806F07BF989E0079B8DF89C
:101304002730022308931DE0019B1B6808224649ED
:1013140018460CF0D7FB0346002B0BD1029B012B84
:1013240002D101238DF81B3000238DF827300123CF
:10133400089307E0019B1B683C4A0221039806F0CE
:1013440057F965E09DF81B30002B23D00023079349
:1013540019E09DF827301A4607990598FFF75BFFB7
:10136400034683F00103DBB2002B09D00021079868
:10137400FFF714F903462E4A0221039806F038F9C0
:10138400079B01330793FFF7C9F80246079B9A426C
:10139400DFD83DE0089B079336E000230493079BC6
:1013A4009B00019A13441B6804AA11461846FFF7D0
:1013B40005FF034683F00103DBB2002B09D0079B32
:1013C4009B00019A13441B681A4A0221039806F0F1
:1013D4000FF9049B9DF8272019460598FFF71BFF7A
:1013E400034683F00103DBB2002B0AD0049B0021E7
:1013F4001846FFF7D3F803460D4A0221039806F076
:10140400F7F8079B01330793079A029B9A42C4D3C8
:101414000BB05DF804FB00BFD8ED0000E0ED000068
:1014240094000020F8ED000018EE000020EE00000B
:1014340038EE00005CEE000000B583B0019000912E
:10144400009B0022DA60009B00225A60009B064A3F
:101454009A6001210198FFF7A1F80246009B1A60E7
:1014640000BF03B05DF804FBECEF000082B0019014
:101474000091009B0022DA60009B00225A60009BCE
:10148400074A9A60019B042B04D8064A019B52F830
:10149400233000E00023009A136000BF02B07047BD
:1014A400ECEF0000A800002000B585B00390029185
:1014B4000192039BDB681846FEF75FFF00BF05B08F
:1014C4005DF804FB00B585B0039002910192039B83
:1014D400DB681846FEF749FF00BF05B05DF804FB62
:1014E40000B587B0059004910392049B012B05D0AD
:1014F4000598FFF7D3FD0346002B05D000220021F9
:10150400059806F0A5F90DE0039B1A68039B0433C4
:101514001B680193054B00931346054A0221059865
:1015240006F066F807B05DF804FB00BFB0EF0000FA
:10153400A4EF000010B582B001900091019BDB790B
:1015440083F00103DBB2002B28D0019B1B7A002B14
:1015540012D0019B9B881A46019B9B791946104621
:10156400FFF73CF803461A460E4B53F822301A464E
:101574000D49009807F0C4FA019B9B791A460B4B5E
:1015840053F82240019B9B8800211846FFF706F878
:10159400034622460649009807F0B2FA00BF02B09B
:1015A40010BD00BFD0000020DCF00000BC00002013
:1015B400E0F0000000B585B00390029113468DF869
:1015C4000730039BDB7983F00103DBB2002B0FD0E0
:1015D400039B1B7A002B06D00D4B1B681A460D4942
:1015E400029807F08DFA0C49029807F089FA07E08F
:1015F4009DF80730002B03D00749029807F080FAC2
:10160400029807F05BFA00BF05B05DF804FB00BF69
:10161400D0000020DCF00000ECF0000030B58BB00E
:1016240007900691059204930E9B1B7B8DF827303F
:101634000E9B00221A730E990498FFF77BFF059BFB
:10164400062B7FD801A252F823F000BF6D160000CC
:1016540077160000871600009B160000B9160000DC
:10166400E11600001117000007990E9807F048FAD8
:1016740069E0069B1B681A4607990E9807F040FA22
:1016840061E0069B1A68069B04331B6807990E9851
:1016940007F036FA57E0069B1A68069B043319686C
:1016A400069B08331B6800930B4607990E9807F0B6
:1016B40027FA48E0069B1968069B04331868069BC2
:1016C40008331B68069A0C32126801920093034691
:1016D4000A4607990E9807F013FA34E0069B186837
:1016E400069B04331C68069B08331B68069A0C325D
:1016F40012680699103109680291019200932346F9
:10170400024607990E9807F0FBF91CE0069B1C683B
:10171400069B04331D68069B08331B68069A0C322B
:10172400126806991031096806981430006803900D
:101734000291019200932B46224607990E9807F0D6
:10174400DFF900E000BF00220E990498FFF732FF92
:101754000E9B9DF827201A7300BF0BB030BD00BF4D
:1017640000B587B00390029101920093029B082B6D
:101774005CD8009B1B7B8DF81330009B00221A73EE
:1017840000990198FFF7D6FE0023059314E0059A0B
:10179400029B9A4209D2039A059B13441B781A466A
:1017A4002449009807F0ACF903E02349009807F0B6
:1017B400A7F9059B01330593059B072BE7D91F491F
:1017C400009807F09DF90023059322E0059A029BF7
:1017D4009A4217D2039A059B13441B788DF8123052
:1017E4009DF8123018460BF033FF0346002B02D04D
:1017F4009DF8123000E02E231A461149009807F094
:101804007FF903E00F49009807F07AF9059B01334B
:101814000593059B072BD9D9012200990198FFF75D
:10182400C9FE009B9DF813201A7300E000BF07B0A7
:101834005DF804FBF0F00000F8F00000FCF000009C
:1018440000F1000004F1000000B589B0039002919A
:101854000192029B9BB2ADF81430019B0693039B4B
:10186400079305AB1A46002144F2010000F050F83A
:1018740000BF09B05DF804FB86B0039002910192A9
:1018840001238DF817309DF81730204A039B13600D
:101894001E4A029B53601D4A019B9360039B44F2C2
:1018A4000102934212D044F20202934222D1019BDC
:1018B400164AD360154BDB681B881A46134B9A6192
:1018C400124BDB685B68114AD36113E0019B0F4A3A
:1018D40013610E4B1B699B680C4A53610B4B1B69CC
:1018E4001B881A46094B9A61084B1B695B68074AB7
:1018F400D36100BF72B600BF9DF81730DBB2002B76
:10190400FAD162B600BF06B0704700BFA806002037
:1019140030B589B0059004910392FFF7A1FB00BF95
:10192400FFF72CF90346002BFAD1059B44F2010280
:10193400934217D044F20202934235D1039B07939A
:101944002B4B5B68002B3ED0294B1B881B0443F0B8
:101954000100079B5B681A46079B1B882549FFF714
:10196400D2F830E0039B0693214B5B68002B2CD00C
:101974001F4B1B881B0443F00104069B9D68069BB8
:101984009B68184608F000FD03461946069B5B68F1
:101994001A46069B1B88019300920B462A46164959
:1019A4002046FFF7C4F810E0114B5B68002B0ED003
:1019B4000F4B1B881B0443F00103049A0F4918467C
:1019C400FFF790F803E000BF02E000BF00E000BFB3
:1019D4000B4B1B6803F00103002B00D0FFDE039ABE
:1019E40004990598FFF748FF00BF09B030BD00BF58
:1019F4004C00002008F1000024F100003CF100003C
:101A0400F0ED00E082B003468DF8073007499DF9F8
:101A140007305B099DF8072002F01F02012000FA3D
:101A240002F241F8232000BF02B0704700E100E059
:101A340082B003468DF8073008499DF907305B09E9
:101A44009DF8072002F01F02012000FA02F2203361
:101A540041F8232000BF02B0704700BF00E100E05E
:101A640082B003468DF8073008499DF907305B09B9
:101A74009DF8072002F01F02012000FA02F2403311
:101A840041F8232000BF02B0704700BF00E100E02E
:101A940082B003468DF8073008499DF907305B0989
:101AA4009DF8072002F01F02012000FA02F26033C1
:101AB40041F8232000BF02B0704700BF00E100E0FE
:101AC40082B0034600918DF807309DF90730002B52
:101AD4000CDA0D499DF8073003F00F03043B009A1C
:101AE400D2B25201D2B20B441A7609E007499DF9E9
:101AF4000730009AD2B25201D2B20B4483F80023C9
:101B040000BF02B0704700BF00ED00E000E100E05C
:101B140084B00190244B0393019B002B40D0234BB2
:101B24001A680399019B00BF00BF00BF00BF00BF3C
:101B340000BF00BF00BF8A422FD000BF00BF00BF5C
:101B440000BF00BF00BF00BF00BF00BF00BF00BF99
:101B540000BF00BF00BF00BF00BF00BF00BF00BF89
:101B640000BF00BF00BF00BF00BF00BF00BF00BF79
:101B740000BF00BF00BF00BF00BF00BF00BF00BF69
:101B840000BF00BF00BF00BF00BF00BF00BF00BF59
:101B940000BF00BF00BF00BF00BF013BC3D1019322
:101BA40000BF04B0704700BF0024F4009801002077
:101BB40000B583B00190064A019BC2F8083507219D
:101BC4001120FFF77DFF00BF03B05DF804FB00BFE9
:101BD4000010014008B50D4B4FF48032C3F8442384
:101BE4000A4B4FF48032C3F804231120FFF750FF4F
:101BF4001120FFF707FF054B01221A602F20FFF782
:101C040087FF034B01221A7000BF08BD001001407A
:101C1400E607002008B51120FFF70AFF0E4B4FF42A
:101C24008032C3F848230C4B4FF48032C3F80823A6
:101C3400094B01225A602F20FFF76AFF064B01224D
:101C44009A60064B00221A602F20FFF761FF044BB5
:101C540000221A7000BF08BD00100140D807002000
:101C6400E6070020024BD3F804351846704700BF3E
:101C74000010014082B001900091019A009BD31A98
:101C840023F07F43184602B07047000082B00190F1
:101C9400034A019BC2F8403500BF02B0704700BF41
:101CA4000010014086B00190284B1B68002B03D123
:101CB400264A019B136045E0019B1A68234B1B686D
:101CC4001B689A4210D8214B1B68204A126811687D
:101CD400019A12688A1A1A601C4B1A68019BDA610D
:101CE4001A4A019B13602DE0019B1B680393174B59
:101CF4001B680593154B1B68049309E0049B1B6840
:101D0400039AD31A0393049B0593049BDB690493FE
:101D1400049B002B04D0049B1A68039B9A42EDD3C6
:101D2400049B002B05D0049B1A68039BD21A049BC6
:101D34001A60019B039A1A60019B049ADA61059B5D
:101D4400019ADA6100BF06B0704700BFD4070020D3
:101D540000B587B001902A4B1B680393284B1B687E
:101D64000593059B049308E0049A019B9A4208D0CA
:101D7400049B0593049BDB690493049B002BF3D120
:101D840000E000BF049B002B01D1002333E0059A3F
:101D9400049B9A4214D11A4B1B68DB69184A1360DE
:101DA400174B1B68002B0BD1164B01229A60164B64
:101DB40000221A60154B01221A702F20FFF7A8FE8B
:101DC400049B1B680293049BDA69059BDA61059BFB
:101DD400DB690493049B002B05D0049B1A68029BC7
:101DE4001A44049B1A60064B1B68039A9A4214BF58
:101DF40001230023DBB2184607B05DF804FB00BFE3
:101E0400D407002000100140D8070020E707002075
:101E140008B51120FFF724FE00BF08BD08B5142043
:101E2400FFF71EFE00BF08BD00B583B00190019B03
:101E34005B69019A92691046984700BF03B05DF848
:101E440004FB000000B585B02B4B1B68002B4ED063
:101E540000230193FFF706FF0246284B1B6819462F
:101E64001046FFF707FF0290234B1B6803931DE006
:101E7400039B1A68029B9A421CD8039B1B68029A14
:101E8400D31A0293039B1B68019A13440193039B87
:101E94000093039BDB690393009B1B7C002B05D001
:101EA400009B00221A740098FFF7BEFF039B002BCF
:101EB400DED100E000BF124B1A78124B1B789A4215
:101EC4000CD1104B1B780133DAB20E4B1A700D4B48
:101ED4001B78022B02D10B4B00221A70094B1B7882
:101EE4001946094A019B42F82130FFF797FF00BFCA
:101EF40005B05DF804FB00BFD4070020D80700201C
:101F0400E4070020E5070020DC07002082B00190F0
:101F1400184B1A78184B1B789A4223D0154B1B7810
:101F24000133DAB2134B1A70124B1B78022B02D115
:101F3400104B00221A700F4B1B781A460F4B53F8A4
:101F44002220019B1A60019B1A680D4B1B681344E5
:101F54000B4A13600A4B1B6823F07F43084A136043
:101F6400012303E0019B00221A600023184602B0FB
:101F7400704700BFE4070020E5070020DC070020CD
:101F8400D807002088B003900291019200230793A0
:101F940038E0204B1B680693069B1A68039B9A4201
:101FA40006D9069B1A68039BD21A069B1A602DE079
:101FB400069B1B68039AD31A0393069B1B68079A14
:101FC40013440793069B00221A60124B1B68059367
:101FD400069BDB690F4A1360069BDB68002B11D05C
:101FE400029A079B134423F07F42069B5A60069B88
:101FF400DA68069B9A60019B1A68069BDA61019B6A
:10200400059A1A60034B1B68002BC2D100BF08B0AD
:10201400704700BFD407002000B589B001900023A9
:102024008DF81F30664B1B680593AAE0019B002BBB
:1020340005D0019B0693069BDB69019361E0614B2C
:102044001B781A4613465B001344DB005D4A1344B5
:10205400043304935B4B1B780133DAB2594B1A7087
:10206400584B1A78574B9B789A4202D1554B002211
:102074001A70049B5B680693049B1B78022B04D0A4
:10208400032B1BD0012B1FD01DE0049B5B6818465B
:10209400FFF75EFE0346002B02D001238DF81F30AC
:1020A400069B00221A746CE0454B1B680393039B48
:1020B40000221A74039BDB69414A1360404B1B687E
:1020C400002BF1D15DE05CE000BF069B1B7C002B84
:1020D40000D056E0049B9A68069B5A60049BDA6819
:1020E400069B9A60049B1A69069BDA60049B5A69F2
:1020F400069B9A61344B1B78002B02D0069B00226E
:102104005A60069B5A68314B1B68D31A23F07F43ED
:102114002F4A93420ED8069B5A682C4B1B681946CB
:102124001046FFF7A7FD0246069B9B681A44069BD0
:102134001A6017E0254B1A68069B5B68194610461F
:10214400FFF798FD0290069B9A68029B9A4206D973
:10215400069B9A68029BD21A069B1A6002E0069BB1
:1021640000221A60069B00225A60069B00229A6095
:10217400069B01221A74069B0022DA610698FFF777
:1021840091FD019B002B7FF451AF0E4B1A780D4B40
:102194005B789A427FF44AAF9DF81F30002B04D13C
:1021A400074B1A68059B9A4201D0012300E00023E3
:1021B40003F00103DBB2184609B05DF804FB00BF6D
:1021C400D4070020C8060020E7070020D807002015
:1021D400FEFF7F0010B588B00190274B1B68002BD1
:1021E40044D0254B1B681B680793FFF73BFD069003
:1021F400224B1B68059305990698FFF73BFD0346A0
:10220400033304931E4B1B7883F00103DBB2002BD2
:1022140001D0FFF7DFFC049A079B934238BF1346B3
:10222400059A13440593059B23F07F430593059872
:10223400FFF72CFDFFF716FD039006990398FFF7AF
:1022440019FD0346DC1C06990598FFF713FD0346A8
:102254009C420DD9FFF706FD03461846FFF716FD0D
:102264002F20FFF755FCFFF7D3FD01E0FFF7D2FC69
:1022740000BF08B010BD00BFD4070020D80700205D
:10228400E607002000B587B00023019300238DF8F2
:102294001730194B1B680493184B1B6803936B4648
:1022A4001846FFF733FE03468DF80B309DF80B30CC
:1022B400002B08D0009B01AA04991846FFF762FE80
:1022C40001238DF81730019B1846FFF7A5FE03463E
:1022D400002B02D001238DF817309DF81730002B06
:1022E40002D00398FFF776FF054B00221A7000BF57
:1022F40007B05DF804FB00BFD8070020D407002016
:10230400E707002082B003468DF80730034A9DF8A2
:102314000730537000BF02B0704700BFC8060020EA
:1023240084B00190144B5B7801338DF80F30124B5D
:102334009B789DF80F209A4202D100238DF80F302C
:102344000D4B1B789DF80F209A4201D100230FE01A
:10235400019B9DF80F201A70074B5B781A461346B1
:102364005B001344DB00044A134404330293029BCE
:10237400184604B0704700BFC806002000B589B0F5
:10238400039002910192009300230793002000F030
:1023940059F90DF117031846FFF7C2FF0690069B83
:1023A400002B02D10423079318E0069B01221A7024
:1023B400069B039A5A60FFF755FC0246069B9A60F7
:1023C400069B029ADA60069B019A1A61069B009AA0
:1023D4005A619DF817301846FFF794FF002000F06B
:1023E40045F9079B002B01D1FFF718FD079B184601
:1023F40009B05DF804FB00B587B001900B468DF879
:10240400033000230593002000F01CF90DF10F03A5
:102414001846FFF785FF0490049B002B02D1042388
:1024240005930BE0049B9DF803201A70049B019A0A
:102434005A609DF80F301846FFF764FF002000F043
:1024440015F9059B002B01D1FFF7E8FC059B184605
:1024540007B05DF804FB000008B50E4B0022C3F87A
:1024640040210C4B0022C3F844210A4B0022C3F83C
:102474004821084B0022C3F84C21064B0022C3F824
:102484000021044B0022C3F80421FFF7DBFC00BF4A
:1024940008BD00BF0010014008B5FFF7F3FE00BF00
:1024A40008BD000008B5FFF7B5FB134B00221A70F6
:1024B400114B00225A70104B0B229A700F4B0022C2
:1024C4001A600F4B00221A700E4B00221A7014204F
:1024D400FFF7DEFA07211420FFF7F2FA1420FFF7C2
:1024E40091FA0020FFF764FBFFF7BCFB0246064BA2
:1024F4001A600023184608BDC8060020D40700202F
:10250400E4070020E5070020D807002086B00390E8
:102514000B4601928DF80B30134B9B78002B01D1A5
:1025240008231EE0019B002B01D1072319E0039B24
:10253400002B01D1072314E0039B1B681B7C002B99
:1025440001D008230DE0039B1B680593059B002223
:102554001A74059B9DF80B205A74059B019A5A61C5
:102564000023184606B07047C806002000B587B09F
:10257400039002910192039B0593144B9B78002BCB
:1025840001D108231EE0039B002B01D1082319E08D
:10259400029B042B01D8072314E0059B5B69002BE5
:1025A40001D108230EE0059B5B7C012B01D1029B2A
:1025B40000E000230493019B049A02990598FFF715
:1025C400DDFE0346184607B05DF804FBC80600208C
:1025D40000B585B00190019B03930D4B9B78002BB4
:1025E40001D1082310E0019B002B03D0039B5B69FE
:1025F400002B01D1082307E0039B00221A74022157
:102604000398FFF7F8FE0346184605B05DF804FB8F
:10261400C806002072B6034B1B680133014A1360DD
:1026240000BF7047E8070020054B1B68013B044AC4
:102634001360034B1B68002B00D162B600BF7047C8
:10264400E807002000B583B0019000F025F80346A8
:10265400012B03D00449432002F040F8FFF7DAFFCE
:1026640000BF03B05DF804FB54F1000000B583B073
:1026740003468DF8073000F00FF80346012B03D012
:102684000449512002F02AF8FFF7CEFF00BF03B03F
:102694005DF804FB54F1000084B0EFF3058301936B
:1026A400019BC3F308030393039B002B0DD1EFF3AA
:1026B40014830093009B0293029B03F00103002BFD
:1026C4000CBF01230023DBB200E00123184604B051
:1026D400704786B0039002910192019B002B02D0B7
:1026E400019B1B8801E04FF6FF73ADF81630002301
:1026F40004933CE0BDF816301B0A9BB2DBB21AB25D
:10270400BDF816301B021BB213431BB2ADF81630D2
:10271400039A049B13441B789AB2BDF816305340B5
:10272400ADF81630BDF81630DBB21B09DBB29AB235
:10273400BDF816305340ADF81630BDF816301B0303
:102744001AB2BDF9163053401BB2ADF81630BDF8BD
:1027540016305B011BB203F4FF531AB2BDF91630F5
:1027640053401BB2ADF81630049B01330493049A12
:10277400029B9A42BED3BDF81630184606B0704785
:1027840082B00190019B03F00303002B0CBF0123D3
:102794000023DBB2184602B0704710B487B0019032
:1027A4000091019B009A53E8004F44EA020043E879
:1027B400000191F0000FF6D1059404900391059B5C
:1027C400184607B05DF8044B704710B487B0019009
:1027D4000091019B009A53E8004F04EB020043E888
:1027E400000191F0000FF6D1059404900391059B2C
:1027F400184607B05DF8044B704710B487B00190D9
:102804000091019B009A53E8004F04EB020043E857
:10281400000191F0000FF6D1059404900391049BFC
:10282400184607B05DF8044B704710B487B00190A8
:102834000091019B009A53E8004FA4EB020043E887
:10284400000191F0000FF6D1059404900391049BCC
:10285400184607B05DF8044B704700B583B001908B
:1028640001210198FFF799FF0346184603B05DF86C
:1028740004FB000000B585B00190002303930EE033
:102884000A4A039B52F82330002B05D0074A039BC6
:1028940052F8233001989847039B01330393039B19
:1028A400032BEDD900BF05B05DF804FBFC07002045
:1028B40082B001900091019B1B78013B052B61D8EC
:1028C40001A252F823F000BFE5280000ED28000023
:1028D4001329000045290000652900008129000012
:1028E400009B00221A704EE0009B01221A70019B8B
:1028F4001A89009B9A81019B9A88009BDA81019B2B
:10290400DA68009B9A60009B00221A743BE0009BEB
:1029140002221A70019B1A89009B9A81019B9A8852
:10292400009BDA81019BDA68009B9A60019B9B7D86
:10293400062B0CBF01230023DAB2009B1A7422E099
:10294400009B03221A70019BDA88009B9A81019BE9
:102954001A89009BDA81019BDA68009B9A6012E075
:10296400009B04221A70019BDA88009B9A81009BC9
:102974000022DA81009B00229A6004E0009B052279
:102984001A7000E000BF00BF02B0704784B001902D
:102994000091019B0393039A009B9A4206D2039BE6
:1029A4001B68B3F1FF3F01D0012300E0002303F0D3
:1029B4000103DBB2184604B0704782B00190019B5A
:1029C4005B8803339B00019A1344184602B0704796
:1029D40000B583B0019000910198FFF7EEFF024625
:1029E400009B9A4201D902230CE0019B9B884FF67D
:1029F400FF72934203D0019B1B88002B01D101235A
:102A040000E00023184603B05DF804FB00B583B072
:102A14000190019B002B13D00D4BDB681A46019BE0
:102A24009A420DD80A4B1B691A46019B9A4207D356
:102A34000198FFF7A5FE0346002B01D0012300E017
:102A4400002303F00103DBB2184603B05DF804FB76
:102A54003800002082B00190019B002B04D0019B20
:102A64001B680B4A934201D003230DE0019B0433FE
:102A74001B68084A934204D0074A934203D10123B6
:102A840002E0002300E00323184602B0704700BFB1
:102A9400DEC0ADDEFE011EF1FF011EF184B0019027
:102AA400002303930CE0039B9B00019A13441B68CF
:102AB400B3F1FF3F01D0002307E0039B01330393ED
:102AC400039BB3F5806FEED30123184604B070471F
:102AD40082B003460A46ADF806301346ADF804301A
:102AE400BDF80620134913469B0013449B000B4476
:102AF40008331A88BDF804301344ADF80430BDF827
:102B040006200C4913469B0013449B000B440A33D4
:102B14001A88BDF804301344ADF80430BDF804300D
:102B240040F2FF32934294BF01230023DBB21846E4
:102B340002B07047AC08002084B0019000910A23D1
:102B440003930023ADF80A3027E0BDF80A201749A3
:102B540013469B0013449B000B4404331A68009BE8
:102B64009A4215D2BDF80A20104913469B0013441B
:102B74009B000B4404331B6803F58052009B9A426C
:102B840006D900230393019BBDF80A201A8008E0AC
:102B9400BDF80A300133ADF80A30BDF80A30012B14
:102BA400D3D9039B184604B0704700BFAC0800207B
:102BB40000B589B0039002910192039B03F5805301
:102BC4000693039B08330393029B02221A80039B00
:102BD400079332E006990798FFF7FAFE03468DF84B
:102BE40017309DF81730002B0AD1079B9A68184BB1
:102BF4001B689A4213D9079B9B68154A13600EE021
:102C0400019B002B02D0019B01221A709DF8173002
:102C1400022B04D1029B4FF480621A8014E0029BC1
:102C24001A88079B5B8813449BB203339AB2029BB6
:102C34001A800798FFF7C1FE079006990798FFF7D7
:102C4400A5FE0346002BC5D109B05DF804FB00BF07
:102C54000C08002082B001900B46ADF80230019BB5
:102C64001A89BDF8023013449BB203339AB2019B14
:102C74001A81019B5A89BDF80230D31A9BB2033BD7
:102C84009AB2019B5A8100BF02B0704700B583B06D
:102C9400074B1B681946002300930823054A06487E
:102CA40006F047FB0346184603B05DF804FB00BF7B
:102CB400D408002004F200003800002000B585B0DC
:102CC40003900399002300930823044A044806F060
:102CD40030FB0346184605B05DF804FB0CF2000017
:102CE4003800002000B585B003460091ADF80630E9
:102CF40000238DF80F30BDF806300333ADF80A30E9
:102D0400BDF80A3040F2FD32934201D909234AE06A
:102D14000023ADF80C303BE0BDF80C2024491346E9
:102D24009B0013449B000B441B78002B2BD1BDF854
:102D34000A20BDF80C3011461846FFF7C9FE0346B9
:102D4400002B20D001238DF80F30009BBDF80C2000
:102D54001A80BDF80C20BDF80C1015480B469B00DA
:102D64000B449B0003440A331988BDF80A300B4412
:102D740098B20F4913469B0013449B000B440A333B
:102D840002461A8008E0BDF80C300133ADF80C306F
:102D9400BDF80C30012BBFD99DF80F30002B01D0AA
:102DA400002300E00723184605B05DF804FB00BFCC
:102DB400AC08002082B003460A46ADF8063013463C
:102DC400ADF80430BDF80420BDF804100C480B46DF
:102DD4009B000B449B0003440A331988BDF806305A
:102DE400CB1A9BB2033B98B2054913469B0013448C
:102DF4009B000B440A3302461A8000BF02B070479E
:102E0400AC08002008B501210248FFF7F6FC034690
:102E1400184608BD0C08002000B585B00346009193
:102E2400ADF80630BDF80620234913469B00134431
:102E34009B000B4404331B6803F580530293009BEF
:102E44001B680393039B002B04D00398FFF7B5FD85
:102E5400039024E0BDF80620174913469B00134451
:102E64009B000B4404331B680833039317E0029957
:102E74000398FFF7ADFD0346012B09D0022B0CD0BC
:102E8400002B00D00BE0009B039A1A6001230EE094
:102E94000398FFF792FD039001E0002307E00299F5
:102EA4000398FFF773FD0346002BE0D10023184677
:102EB40005B05DF804FB00BFAC08002000B585B088
:102EC40001900091019B5B681846FFF79FFD034644
:102ED400002B19D0019B1A89244B1B899A4213D1C8
:102EE400019B1A68019B5B689B689A420CD1019B09
:102EF4005B6819460098FFF71FFE0346002B0CBFC2
:102F040001230023DBB22CE0009B00221A8023E083
:102F14000023029310E0029B0393039B9A68019B96
:102F24001B689A4208D1029A019B5A600F4B1A8976
:102F3400019B1A81012314E0009B1B8802AA1146FD
:102F44001846FFF769FF0346002BE4D1009B1B885A
:102F540001339AB2009B1A80009B1B88012BD7D99E
:102F64000023184605B05DF804FB00BFDC08002010
:102F740000B587B00390029101920093304B1B7807
:102F8400DBB283F00103DBB2002B01D0022353E058
:102F9400019B002B02D0009B002B48D105234BE062
:102FA400009B9B881946274A0B469B000B449B00B9
:102FB40013441B78002B33D124E0009B1B6805933A
:102FC400039B002B06D0059B9A88039B1B889A427F
:102FD40000D017E0029B002B06D0059B1A88029BA9
:102FE4001B889A4200D00DE0059B9A68019B1A60E9
:102FF400009B1A68019B5A60134B1A89019B1A8122
:10300400002319E0009B9B88009A11461846FFF79D
:1030140003FF0346002BD0D1009B00221A6000E07E
:1030240000BF009B9B8801339AB2009B9A80009B4F
:103034009B88012BB4D90A23184607B05DF804FB1A
:10304400EC070020AC080020DC08002000B587B0A5
:103054000291019200930346ADF80E30BDF80E20A4
:10306400314913469B0013449B000B4404331B68F3
:1030740008330593BDF80E202B4913469B001344D7
:103084009B000B4404331B6803F58053049341E015
:1030940004990598FFF79CFC0346012B04D0022BEE
:1030A40022D0002B15D034E0019B1B8801339AB247
:1030B400019B1A80009B1A88059B5B8813449BB272
:1030C40003339AB2009B1A800598FFF776FC0590AB
:1030D40020E0029B1B8801339AB2029B1A80059858
:1030E400FFF76BFC059015E0019B1B8801339AB236
:1030F400019B1A80009B1A880499059BCB1A9B108C
:103104009BB213449AB2009B1A80089B01221A7046
:1031140007E000BF04990598FFF738FC0346002B2D
:10312400B6D107B05DF804FBAC08002000B585B04B
:103134000190084B0199184601F08FFB03901C2263
:10314400002103980AF06CFD039B184605B05DF856
:1031540004FB00BF9C08002000B583B00190044B21
:103164000199184601F090FB00BF03B05DF804FB21
:103174009C08002000B583B00190054B01991846C6
:1031840001F096FB0346184603B05DF804FB00BF4C
:103194009C08002000B583B00190044B01991846A7
:1031A40001F09DFB00BF03B05DF804FB9C08002008
:1031B40008B50A4B1B68002B04D1094940F2712061
:1031C40001F08CFA01210548FFF72FFB0346002B81
:1031D40014BF01230023DBB2184608BDF407002006
:1031E400B4F1000000B587B0002305930023ADF8C7
:1031F40012300323ADF8103000238DF80F30002374
:10320400ADF80C30F0E0BDF80C301B031A467F4BD0
:10321400DB68134402930298FFF71CFC03468DF805
:1032240007309DF80730012B00F09C80032B02D05F
:10323400002B62D0D3E00298FFF730FC0346002B4A
:103244003BD0734B1B68002B29D0BDF81220714969
:1032540013469B0013449B000B4402221A70BDF8D2
:1032640012206C4913469B0013449B000B44043307
:10327400029A1A60BDF81220664913469B00134453
:103284009B000B44083302221A80634ABDF81230B3
:103294005380BDF812300133ADF8123008E05C4AB7
:1032A400029B13605A4B02229A8001238DF80F303F
:1032B400059B43F00103059391E0BDF81030013BF9
:1032C400ADF81030BDF81220524913469B00134448
:1032D4009B000B440433029A1A60BDF812204D4936
:1032E40013469B0013449B000B4403221A70BDF841
:1032F40012300133ADF8123071E0BDF812204549A7
:1033040013469B0013449B000B4400221A70BDF823
:103314001220404913469B0013449B000B44043382
:10332400029A1A60BDF8122013469B0013449B00B6
:103334000833384A9918BDF8122013469B001344E9
:103344009B001033334A13441A460298FFF730FCAB
:10335400059B43F002030593BDF812300133ADF829
:1033640012303CE09DF80F30002B25D0BDF8122020
:10337400284913469B0013449B000B4402221A70F5
:10338400BDF81220224B1968224813469B001344AF
:103394009B00034404331960BDF812201D491346F1
:1033A4009B0013449B000B44083302221A80BDF88F
:1033B40012300133ADF81230154A029B136000221B
:1033C40016490298FFF7F4FB114B9B88022B01D19D
:1033D400042300E00823059A1343059300BFBDF8B6
:1033E4000C300133ADF80C30BDF80C30022B7FF6F5
:1033F4000AAFBDF81030012B01D800230593059BBB
:10340400DBB2184607B05DF804FB00BF38000020AB
:10341400D4080020AC080020DC080020D8080020D4
:1034240000B587B003900291039B02229A7502991A
:10343400039B1A1D002300930423074805F079FF1A
:103444000590059B002B01D1002300E00E231846B4
:1034540007B05DF804FB00BF3800002000B587B05A
:1034640003900291039B1B69002B01D0032200E00F
:103474000122039B9A75029B08331946039B03F1AF
:103484000C02002300930423064805F052FF059024
:10349400059B002B01D1002300E00E23184607B042
:1034A4005DF804FB3800002000B587B0039002915A
:1034B400039B1B78032B01D1052200E00622039B0A
:1034C4009A75029B04331946039B03F108020023F7
:1034D40000930423064805F02CFF0590059B002B60
:1034E40001D1002300E00E23184607B05DF804FB69
:1034F4003800002000B587B003900B46ADF80A30C1
:1035040003990023009304230C4A0D4805F011FF8E
:103514000590059B002B01D00E230BE0BDF80A207B
:10352400084913469B0013449B000B4410330122AB
:103534001A700023184607B05DF804FB14F200006B
:1035440038000020AC08002000B589B0019002AB1F
:1035540000221A605A609A60019BDB6802930DF1A5
:10356400160202AB11461846FFF7A8FC0346002BCF
:1035740012D0039B0693069B9A88019BDA80069BD4
:103584001A88019B1A81039BBDF816201146184620
:10359400FFF7B0FF079001E00A230793079B184643
:1035A40009B05DF804FB000000B587B00190019BF1
:1035B400981D02AA0D4B0021FFF7DAFC0590059B2C
:1035C400002B08D1039A094B9B8819461046FFF734
:1035D40091FF059004E00822002104480AF020FB32
:1035E400059B184607B05DF804FB00BFEC080020FB
:1035F40000B587B003900291039B01229A75029B48
:103604000C331846039B1A69039BDB88990000233B
:1036140000930B460146074805F08BFE0590059B79
:10362400002B01D1002300E00E23184607B05DF8FB
:1036340004FB00BF3800002000B585B003460092AB
:10364400ADF806300B46ADF8043000220621009890
:10365400FFF73FF80346ADF80E30009B03F1080076
:10366400BDF8043001339B000DF10E021946FFF73B
:1036740030F80346ADF80E30BDF80E30BDF8062024
:103684009A420CBF01230023DBB2184605B05DF853
:1036940004FB000082B0174B1B8901339AB2154B0F
:1036A4001A81144B00225A80124B00221A730023F1
:1036B400ADF8063017E0BDF80610BDF806200E4838
:1036C40013469B0013449B0003441B78002B0CBF40
:1036D40001230023DAB2074B0B449A72BDF806307B
:1036E4000133ADF80630BDF80630012BE3D900BF35
:1036F40002B07047DC080020AC08002084B00190C0
:1037040000238DF80F300023ADF80C3031E0BDF804
:103714000C301C4A13449B7A002B25D0BDF80C3086
:10372400184A134400229A72BDF80C201649134615
:103734009B0013449B000B440C331B68002B13D1D8
:10374400BDF80C20104913469B0013449B000B4406
:1037540010331B78002B07D0019BBDF80C201A8076
:1037640001238DF80F3008E0BDF80C300133ADF8BB
:103774000C30BDF80C30012BC9D99DF80F30184618
:1037840004B07047DC080020AC08002008B5084BE2
:1037940005221A70074B02229A80064B1B681946B1
:1037A40000230122044805F016FE0346184608BD0E
:1037B400DC080020D40800203800002000B583B0C5
:1037C400164B5B88ADF80230BDF80220144913464D
:1037D4009B0013449B000B440C331B68002B14D137
:1037E4000E4B04221A70BDF802200D4913469B00AB
:1037F40013449B000B4404331B6819460023012225
:10380400084805F0E8FD019002E0FFF7BFFF0190D2
:10381400019B184603B05DF804FB00BFDC080020E0
:10382400AC0800203800002000B587B0114B5B685D
:103834000593114B1A68104B9B889B001344049307
:10384400059B5B880333ADF80E300A4B03221A70D4
:103854000499084B5A68BDF80E3098000023009371
:103864000346064805F065FD0346184607B05DF8B3
:1038740004FB00BFDC080020D4080020380000202E
:1038840000B583B00A4B5B880A491846FFF7C4FAAF
:103894000346002B03D0FFF7C7FF019002E0FFF7B8
:1038A4008DFF0190019B184603B05DF804FB00BF37
:1038B400DC080020E008002008B50A4B06221A7034
:1038C400084B5B881946084A0B469B000B449B0037
:1038D400134404331B681846FFF7F0F903461846EF
:1038E40008BD00BFDC080020AC08002008B5054B6B
:1038F40007221A70034B00225A60FFF7C7F90346E8
:10390400184608BDDC08002008B50D48FFF7F6FE90
:10391400034683F00103DBB2002B0BD0094B0022DA
:103924001A70084B00225A80064B00225A6041F656
:103934001D5302E0FFF7A4FF0346184608BD00BF6D
:10394400DE080020DC08002082B0094B5B6801938C
:10395400019B5B880333ADF80230064B9A88BDF8AF
:10396400023013449AB2034B9A8000BF02B07047EE
:10397400DC080020D408002082B0184B1B68019397
:10398400174B5B881946174A0B469B000B449B0058
:10399400134404331B68114A1360114B5B881946A6
:1039A400104A0B469B000B449B0013440433019ABA
:1039B4001A600B4B5B881946084B9888094A0B46DA
:1039C4009B000B449B001344083302461A80034BAC
:1039D40002229A8000BF02B0704700BFD4080020C2
:1039E400DC080020AC08002008B51A4B1B78072B14
:1039F4002CD801A252F823F01D3A0000513A0000DD
:103A0400513A0000293A0000353A0000413A0000DA
:103A1400413A0000493A0000FFF73CFE0D4B0122F9
:103A24001A7014E0FFF790FF0A4B02221A700EE09E
:103A3400FFF7A2FF074B06221A7008E0054B072286
:103A44001A7004E0034B01221A7000E000BF00BFAB
:103A540008BD00BFDC08002000B587B001900091CC
:103A64000F230593019B002B04D0624B00225A6064
:103A74000123BBE0009B1B79032B00F2AB8001A266
:103A840052F823F0993A0000A73A0000353B0000B1
:103A9400553B0000009B01221A71FFF7F7F80590CF
:103AA4009BE000238DF813300023ADF810302BE099
:103AB400BDF81020504913469B0013449B000B444F
:103AC4001B78022B1BD1BDF810204B4913469B00D9
:103AD40013449B000B4400221A7001238DF8133009
:103AE400BDF81020444913469B0013449B000B442B
:103AF40004331B681846FFF7E1F8059008E0BDF8A9
:103B040010300133ADF81030BDF81030012BCFD98F
:103B14009DF8133083F00103DBB2002B5CD0354BEE
:103B240001221A70334B00225A6041F61D535DE0A6
:103B3400009B00221A71314B02229A802F4B1B6882
:103B44001946002301222E4805F045FC059044E067
:103B5400009B00221A71294B1B681846FFF7AEF828
:103B64000590284B5B88ADF80E30244B1B680293FC
:103B7400BDF80E20204913469B0013449B000B44C0
:103B840004331B681D4A1360BDF80E201A491346FE
:103B94009B0013449B000B440433029A1A60BDF843
:103BA4000E20164B9888144913469B0013449B001F
:103BB4000B44083302461A80104B02229A80BDF847
:103BC4000E200D4913469B0013449B000B44002216
:103BD4001A7002E000BF00E000BF059B002B04D078
:103BE400044B00225A600E2300E00023184607B05D
:103BF4005DF804FBEC070020AC080020D40800208A
:103C040038000020DC08002000B587B00190009146
:103C1400009B9B8A1A4613469B0013449B003C4A14
:103C240013440493019B002B07D0009BDB881946A7
:103C34000498FFF70FF8012365E0049B5A68049B7E
:103C44001B899B0013440393009B9B7D062B4DD83B
:103C540001A252F823F000BF9F3C0000C33C0000C7
:103C6400AB3C0000B73C0000793C0000CF3C0000B6
:103C7400E93C0000274B00225A60009B9B69254ABF
:103C8400136025492348FFF719F9034683F001031C
:103C9400DBB2002B01D00A2335E003990098FFF72B
:103CA400BFFB059025E003990098FFF7D7FB05902B
:103CB4001FE003990098FFF79BFC059019E0039916
:103CC4000098FFF7F1FB059013E0009B06229A751C
:103CD400104B5A68104B1B8819461046FFF70AFC14
:103CE400059006E041F61D53059302E00F2305936A
:103CF40000BF059B002B05D0009BDB881946049868
:103D0400FEF7A8FF059B184607B05DF804FB00BF4B
:103D1400AC080020F40800200009002000B585B09C
:103D240001900091019B002B01D0012323E0009B13
:103D34001B79012B0BD0022B14D0002B16D1009B26
:103D440002221A710098FFF7FFFB039012E000981B
:103D5400FFF72AFC0390039B0A2B0AD141F61D535B
:103D6400039306E041F61D53039303E00F230393EB
:103D740000E000BF039B184605B05DF804FB00009B
:103D840000B585B00190019B002B01D001233BE0DD
:103D94001F4B1B7B002B03D01D4B00221A7301E029
:103DA400FFF722FE1A4B1B78013B062B28D801A2F1
:103DB40052F823F0D53D0000DD3D0000E53D000054
:103DC400ED3D0000053E0000F53D0000FD3D000016
:103DD400FFF79AFD039016E0FFF752FD039012E0FF
:103DE400FFF722FD03900EE0FFF7E8FC03900AE0E2
:103DF400FFF762FD039006E0FFF778FD039002E011
:103E04000F23039300BF039B184605B05DF804FB22
:103E1400DC08002000B589B001903F4B1B68002BE3
:103E240005D13E48FFF7A6F902463B4B1A603A4BD0
:103E34001B68002B04D13A4940F2795000F04EFC43
:103E4400354B1B681B78013B052B2CD801A252F87B
:103E540023F000BF713E0000813E0000813E00005F
:103E6400913E0000913E0000A13E00002A4B1B68D9
:103E740019460198FFF7F0FD019017E0264B1B68E7
:103E840019460198FFF7C0FE01900FE0224B1B6812
:103E940019460198FFF742FF019007E00198FFF7E8
:103EA4006FFF019002E00F23019300BF019B002BE1
:103EB4002BD003AB14220021184609F0B1FE019B5C
:103EC40041F61D52934204D100230493002301932D
:103ED40001E0019B0493104B1B6803AA114618468A
:103EE400FEF7E6FC03AB1846FEF7C4FC0A4B0022BF
:103EF4001A600A48FFF74EF9FFF75AF9034683F0B0
:103F04000103DBB2002B02D187E700BF00E000BF52
:103F140000BF09B05DF804FB040900200809002073
:103F2400B4F1000008B501210548FEF74EFC034634
:103F3400002B02D10020FFF76DFF00BF08BD00BFBA
:103F4400F407002000B583B00190019B5B6818461C
:103F5400FFF760FF00BF03B05DF804FB00B58BB052
:103F64000390029101928DF803300023ADF81830CC
:103F74000023ADF82630614B1B78DBB283F00103DC
:103F8400DBB2002B01D00223B3E0029B002B01D152
:103F94000523AEE0029B1B884FF6FF72934203D0C9
:103FA400029B5B88002B01D10423A2E0029B5B6887
:103FB4001846FEF7E5FB034683F00103DBB2002B52
:103FC40001D0032395E0019B002B11D1029B9B6838
:103FD400ADF826300DF11A02BDF826301146184608
:103FE400FEF780FE0890089B002B09D0089B80E018
:103FF400019B1B88ADF81A30019B5B88ADF8263015
:1040040005AB1846FFF792F80790079B002B09D1E0
:10401400BDF81A20BDF8263011461846FEF7CAFE30
:10402400082366E0079B9DF803201A70079B002273
:104034009A75BDF81A20079B9A82029B5A68079BBF
:104044001A61FEF7DFFE0246079BDA60029B1A88BC
:10405400079B1A81029B5A88079B9A80079BBDF88D
:104064002620DA809DF80330032B06D1079B042217
:104074009A75039B1A68079B9A61079B0433002275
:1040840006211846FEF725FB0346ADF81830079BBA
:104094000C3306AA04211846FEF71BFB0346ADF8B1
:1040A4001830029B5868029B9B689B0006AA19461D
:1040B400FEF70FFB0346ADF81830BDF81820079B38
:1040C4005A8105AB1846FFF747F8039B002B0DD028
:1040D400039B00225A60079BDA68039B1A60039BC8
:1040E40000229A72064B1A89039B1A81FFF71AFF62
:1040F400002318460BB05DF804FB00BFEC0700205A
:10410400DC08002000B585B001900C4B1B68042B23
:1041140002D10C2303930BE0084B1B680849019A56
:1041240041F8232001210548FEF767FB0023039390
:10413400039B184605B05DF804FB00BFF807002098
:10414400FC07002084B04FF010235B6903934FF009
:1041540080531B6902934FF080535B690193039B67
:10416400B3F1FF3F04D1019B029A02FB03F300E089
:10417400039B184604B0704700B583B04FF4405316
:104184000193FFF7DFFF0246054B1A61044B1A69DE
:10419400019BD31A024AD36000BF03B05DF804FB4D
:1041A4003800002008B5FFF7E7FF00220349044860
:1041B40005F0A4F80346184608BD00BF40FA000005
:1041C4003800002008B504481C238C22034900F061
:1041D40011FB00BF08BD00BF9C0800201008002090
:1041E40000B58BB002AB00221A605A609A60DA60A4
:1041F4001A61404B1B78DBB2002B05D002AB18468A
:10420400FEF738FB002371E03B48FEF726FB03462C
:10421400002B01D0002369E0FFF7C4FF0990099B3C
:10422400002B01D0099B61E0FFF7CCFFFEF7DAFF1A
:1042340003468DF823309DF82330022B0DD0062B36
:104244000DD0002B09D000BF01AB1846FEF76EFF5E
:104254000790079B002B10D10DE00B2346E0254B64
:1042640001221A70234B00225A6002AB1846FEF753
:1042740001FB00233AE0082338E0079B01221A706F
:104284009DF82330013B0A2B28D801A252F823F0D1
:10429400C1420000E1420000C1420000E1420000CE
:1042A400D9420000E1420000D9420000E14200008E
:1042B400C9420000D1420000C9420000079B00220D
:1042C4001A710CE0079B03221A7108E0079B022273
:1042D4001A7104E0079B01221A7100E000BF01ABD0
:1042E4001846FEF739FFFFF71DFE002318460BB0F2
:1042F4005DF804FBEC070020F007002000B585B052
:1043040001900091019B002B02D0009B002B01D156
:1043140005233AE00DF10A0319460198FEF7CEFD94
:104324000346002B30D0019B5B680393039BD88822
:10433400039B5988019B5B681A46FFF77DF9034686
:1043440083F00103DBB2002B01D00D231DE0BDF887
:104354000A301A4613469B0013449B0008330D4A47
:104364001344043301211846FEF747FA009B039ACD
:104374001A60019B5B6803F10C02009B5A60019B6D
:1043840001229A72002300E00A23184605B05DF862
:1043940004FB00BFAC08002000B585B00190019B70
:1043A400002B01D1052339E00DF10A0319460198C8
:1043B400FEF784FD0346002B2DD0BDF80A301946C4
:1043C400184A0B469B000B449B0013440C331B6898
:1043D400002B1DD0019B9B7A002B19D0BDF80A300D
:1043E4001A46104913469B0013449B000B440C339C
:1043F4001B68591E0B4813469B0013449B0003443F
:104404000C331960019B00229A720023039304E089
:104414000623039301E00A230393039B184605B084
:104424005DF804FBAC08002000B583B00190009156
:104434000223002200990198FFF790FD03461846D5
:1044440003B05DF804FB00B583B001900091019BBB
:10445400002B01D1052306E00323002200990198D3
:10446400FFF77CFD0346184603B05DF804FB00002B
:1044740000B585B00190174B1B78DBB283F00103C4
:10448400DBB2002B01D002231FE0019B002B01D1E2
:1044940005231AE002AB1846FEF748FE0390039B7F
:1044A400002B01D1082310E0039B04221A70039B04
:1044B40000221A71019B1A68039BDA6002AB18464A
:1044C400FEF74AFEFFF72EFD0023184605B05DF8FF
:1044D40004FB00BFEC07002000B583B0144B1B782D
:1044E400DBB283F00103DBB2002B01D002231AE01C
:1044F4006B461846FEF71AFE0190019B002B01D172
:10450400082310E0019B06221A706B461846FEF73A
:1045140023FE084B1B78002B02D0064B01221A7392
:10452400FFF700FD0023184603B05DF804FB00BF4D
:10453400EC070020DC08002000B583B00190009156
:10454400009B019A00210020FEF712FD0346184645
:1045540003B05DF804FB00B585B0029201930346F5
:10456400ADF80E300B46ADF80C3003A90DF10E007A
:10457400019B029AFEF7FCFC0346184605B05DF861
:1045840004FB000010B586B003904FF48063ADF8CF
:1045940014300023ADF812304E4B1B78DBB283F09D
:1045A4000103DBB2002B01D0022390E0039B002B1C
:1045B40001D105238BE012220021039809F030FB7E
:1045C400039B03221A800023ADF816307AE0BDF86D
:1045D4001620414913469B0013449B000B440833A7
:1045E4001988BDF816203C4813469B0013449B00D1
:1045F40003440A331B880B44ADF81030BDF8162071
:10460400354913469B0013449B000B4404331B6839
:104614001846FEF71FFA0346032B05D1039B1B889C
:10462400013B9AB2039B1A80BDF816202A4913460F
:104634009B0013449B000B440C331968039B5A885A
:104644008BB213449AB2039B5A80039B1989BDF819
:104654001620214813469B0013449B0003440A334D
:104664001B880B449AB2039B1A81039B5A89BDF899
:10467400103013449AB2039B5A81BDF81420BDF83C
:104684001030D31AADF81230039B9B89BDF8122069
:104694009A4203D9039BBDF812209A81039B191DEA
:1046A400039B9A1D039B03F10E04039B1033BDF877
:1046B400160000932346FEF7C9FCBDF816300133FB
:1046C400ADF81630BDF81630012B80D900231846FA
:1046D40006B010BDEC070020AC08002000B585B082
:1046E40003460091ADF80630BDF80630ADF8083049
:1046F400009B039302AB1A46002144F20200FDF72B
:1047040007F900BF05B05DF804FB86B00190009185
:10471400019B53E8011F8AB2D889024498898242D6
:1047240028BF121A1889824202BFBFF32F8F0023B9
:1047340007E0C2EA010243E801200028E9D14FF072
:1047440001038DF80F30059002910492029A009BA8
:104754001A609DF80F30DBB2184606B0704784B07B
:104764000190019951E8013FC3EA034341E8013252
:10477400002AF7D10392029300BF04B0704786B0B9
:1047840001900091019B53E8021F1FFAA1F2D888FF
:10479400824202BFBFF32F8F00230DE0D889024469
:1047A4009889824228BF121AC1EA024243E80220D1
:1047B4000028E8D14FF001038DF80F3005900291E5
:1047C4000492029A009B1A609DF80F30DBB21846DF
:1047D40006B0704784B00190019951E8023FC3EAE2
:1047E400234341E80232002AF7D10392029300BF27
:1047F40004B0704784B00390029111461A460B46E8
:10480400ADF806301346ADF80430029B002B01D1FD
:104814000E231FE0BDF80630BDF80420B3FBF2F10F
:1048240002FB01F29B1A9BB2002B01D0092311E079
:10483400039B029A1A60039B00225A60039B002286
:104844009A60039BBDF806209A81039BBDF804205F
:10485400DA810023184604B0704700B583B0019094
:104864000091009B19460198FFF74FFF0346002B68
:1048740005D0019B1B68009A1288134400E00023B2
:10488400184603B05DF804FB00B583B001900091B5
:10489400009B1A88009B5B889A4204D10198FFF719
:1048A4005EFF012300E00023184603B05DF804FB1B
:1048B40000B583B001900091009B19460198FFF761
:1048C4005EFF0346002B05D0019B1B68009A5288AB
:1048D400134400E00023184603B05DF804FB00B560
:1048E40083B001900091009B1A88009B5B889A42D8
:1048F40004D10198FFF76EFF012300E0002318465E
:1049040003B05DF804FB000000B583B001900B46D2
:104914008DF80330019B002B03D10849AF20FFF72A
:10492400DDFE019BDA689DF803300199098A01FBD9
:1049340003F31344184603B05DF804FB20F20000AF
:1049440000B583B001900091019B002B03D108496D
:10495400BC20FFF7C3FE009B019AD2689B1A019A00
:10496400128AB3FBF2F3DBB2184603B05DF804FB22
:1049740020F2000000B585B00190019B002B01D10D
:104984000E2349E0019B1B68002B03D12449C62058
:10499400FFF7A4FE019B5B68002B03D12049C720CD
:1049A400FFF79CFE019B9B68002B03D11C49C82088
:1049B400FFF794FE019BDB68002B03D11849C92043
:1049C400FFF78CFE019B1B8A002B03D11449CA20DC
:1049D400FFF784FE019B9B681A46019B5B68D31A10
:1049E4008DF80F30019B1B68019A52681A6007E02A
:1049F400019B1A681368591C11609DF80F201A70E6
:104A04009DF80F305A1E8DF80F20002BF0D1019B1A
:104A14001B6800221A710023184605B05DF804FBD8
:104A240020F2000000B585B00190019B002B03D15A
:104A34001C49EC20FFF752FE002303930020FDF7EE
:104A440001FE019B1B681A68019B5B689A4220D98E
:104A5400019B1B681A68013A1A601B681B78194687
:104A64000198FFF751FF0390019B9B681A46019B35
:104A74001B681B68D31A8DF80B30019B1B681B79CC
:104A84009DF80B209A4204D9019B1B689DF80B20CA
:104A94001A710020FDF7EAFD039B184605B05DF886
:104AA40004FB00BF20F2000010B584B00190009117
:104AB400019B002B04D111494FF48870FFF70EFEBF
:104AC400009B002B04D10D4940F21110FFF706FEA4
:104AD400009B03930020FDF7B5FD019B1B681C6838
:104AE400621C1A6003990198FFF72AFF034623709A
:104AF4000020FDF7BBFD00BF04B010BD20F2000094
:104B040082B00190019B01225A7200BF02B070472B
:104B140082B00190019B9B6893F83D31C3F340033D
:104B2400DBB2002B14BF01230023DBB2184602B012
:104B34007047000084B00190244B0393019B002B29
:104B440040D0234B1A680399019B00BF00BF00BFEC
:104B540000BF00BF00BF00BF00BF8A422FD000BF0C
:104B640000BF00BF00BF00BF00BF00BF00BF00BF49
:104B740000BF00BF00BF00BF00BF00BF00BF00BF39
:104B840000BF00BF00BF00BF00BF00BF00BF00BF29
:104B940000BF00BF00BF00BF00BF00BF00BF00BF19
:104BA40000BF00BF00BF00BF00BF00BF00BF00BF09
:104BB40000BF00BF00BF00BF00BF00BF00BF013B7C
:104BC400C3D1019300BF04B0704700BF0024F400B8
:104BD4009801002000B583B00190019B002B04D004
:104BE400019809F09BF8034600E00023184603B03F
:104BF4005DF804FB10B582B00190019B9B68DB7CDF
:104C04001C46019B1B681846FFF7E4FF0346234438
:104C1400019A9268527BB3FBF2F102FB01F29B1AF8
:104C2400002B0CBF01230023DBB2184602B010BDD9
:104C340010B582B00190019B9B689B7C1C46019B34
:104C44001B681846FFF7C6FF03462344019A92687F
:104C5400527BB3FBF2F102FB01F29B1A002B0CBF57
:104C640001230023DBB2184602B010BD10B588B092
:104C74000390029101920093039B002B02D0029BAC
:104C8400002B03D12B499120FFF728FD039B5B6880
:104C94001B68002B03D127499220FFF71FFD002337
:104CA40007933BE0039B5B681B68DC68039B5868C5
:104CB400029A079BD11805AB019AA0470690069B60
:104CC400002B03D01B499C20FFF708FD059B019A8C
:104CD4009A4203D217499D20FFF700FD059B079ACE
:104CE40013440793059B019AD31A0193059B002B48
:104CF40014D1039B9B681B78032B0FD000BF039B2D
:104D04009B6893F83C31DBB283F00103DBB2002BE8
:104D1400F5D1039B9B68002283F83C21019B002B67
:104D2400C0D1009B002B02D0059A009B1A6000BFE3
:104D340008B010BDA8F2000000B583B001900B4686
:104D44008DF80330019B1B699DF803200349184625
:104D540003F0D6FE00BF03B05DF804FBFCF20000D4
:104D640010B586B00390029101920093039B002B2F
:104D740002D0029B002B03D10C49C020FFF7AEFCEC
:104D8400039B5B68002B03D10849C120FFF7A6FCF5
:104D9400039B5B681B681C69039B5868009B019A12
:104DA4000299A047059000BF06B010BDA8F200000C
:104DB40000B589B00390029101920093009B002BEF
:104DC40003D13A49D520FFF789FC0A9B002B03D174
:104DD4003649D620FFF782FC029B002B34D1344A9B
:104DE400344BD31ADB08019A9A4229D20023069342
:104DF400314B0593002307931BE0079BDB002D4AEF
:104E040013440693019B9B00059A13441A68069B5E
:104E14005B681B681946104608F058FF0346002BD0
:104E240004D1069B5A68009B1A603CE0079B01333F
:104E340007931F4A1F4BD31ADB08079A9A42DCD305
:104E4400009B00221A602EE0039B002B03D1009BE1
:104E540000221A6027E0039B1B78002B10D0039BD1
:104E64005B680A99019898470A9B1B68002B03D139
:104E7400009B00221A6016E0009B0A9A1A6012E056
:104E8400039B5A68019B1B0113441B68002B07D02A
:104E9400039B5A68019B1B011A44009B1A6002E0A1
:104EA400009B00221A6009B05DF804FBA8F2000020
:104EB400C8EB000058EB00000000002000B585B0EE
:104EC4000190019B9B680393019B9B6808330293A9
:104ED400019B1B681846FFF77DFE0346DAB2029B6E
:104EE4009A71039BDB7C1A46029B9B791344029ABA
:104EF400527993FBF2F102FB01F29B1ADBB201330C
:104F0400DAB2029B1A70039BDB7C1A46029B9B79E4
:104F14001344029A527993FBF2F3DBB20133DAB20F
:104F2400029B9A70039B9B7C1A46029B9B791344B9
:104F3400029A527993FBF2F3DBB20133DAB2029BA9
:104F4400DA70039B9B7C1A46029B9B791344029A5A
:104F5400527993FBF2F102FB01F29B1ADBB20133AB
:104F6400DAB2029B5A70029B184605B05DF804FB46
:104F740000B583B00190019B002B04D10C494FF480
:104F84009D70FFF7ABFB019B1B69002B04D1084903
:104F94004FF49D70FFF7A2FB019B1B69054A06496C
:104FA400184603F0ADFD00BF03B05DF804FB00BF7D
:104FB400A8F20000C8F8000000F3000000B583B0B8
:104FC4000190019B002B04D10C494FF4A070FFF712
:104FD40085FB019B1B69002B04D108494FF4A07089
:104FE400FFF77CFB019B1B69054A0649184603F041
:104FF40087FD00BF03B05DF804FB00BFA8F200000A
:10500400BCF8000000F3000000B583B00190019BE0
:10501400002B04D10C494FF4A370FFF75FFB019BF5
:105024001B69002B04D108494FF4A370FFF756FB0A
:10503400019B1B69054A0649184603F061FD00BF40
:1050440003B05DF804FB00BFA8F20000C0F8000044
:1050540000F3000000B583B00190019B002B04D144
:105064000C494FF4A670FFF739FB019B1B69002B19
:1050740004D108494FF4A670FFF730FB019B1B696C
:10508400054A0649184603F03BFD00BF03B05DF82E
:1050940004FB00BFA8F20000ACF8000000F300001D
:1050A40000B583B001900B468DF803309DF80330B2
:1050B400002B07D0019B1B699DF803200349184668
:1050C40003F01EFD00BF03B05DF804FB04F3000011
:1050D40000B583B001900B468DF803309DF8033082
:1050E400002B07D0019B1B699DF803200349184638
:1050F40003F006FD00BF03B05DF804FB0CF30000F1
:1051040000B583B001900B468DF803309DF8033051
:10511400002B07D0019B1B699DF803200349184607
:1051240003F0EEFC00BF03B05DF804FB14F30000D1
:1051340000B583B001900B468DF803309DF8033021
:10514400002B07D0019B1B699DF8032003491846D7
:1051540003F0D6FC00BF03B05DF804FB1CF30000B1
:1051640000B585B00190019B9B68DA7C019B9B682C
:105174009B7C9A4220D20198FFF7A0FE0390039BE8
:105184009B788DF80B30019B9B68DA7C0132D2B29C
:10519400DA740198FFF792FE0390039B9B789DF8C5
:1051A4000B209A4204D101210198FFF791FF04E0FA
:1051B4000198FFF74FFF00E000BF05B05DF804FB66
:1051C40000B585B001900198FFF778FE0390039B2A
:1051D4009A78039BDB789A420CBF012300238DF855
:1051E4000B300198FFF706FD0346002B05D101980B
:1051F400FFF71EFD0346002B02D00198FFF72AFF9C
:105204009DF80B30002B0AD0039B5A78039B1B7824
:10521400D31ADBB219460198FFF742FF24E0039B3F
:10522400DA78039B9B78D31ADBB219460198FFF70F
:1052340067FF039B1A78039B5B789A420AD9039B06
:105244001A78039B5B78D31ADBB219460198FFF7EF
:105254003FFF09E0039B5A78039B1B78D31ADBB208
:1052640019460198FFF71CFF00BF05B05DF804FB69
:1052740000B585B001900198FFF720FE0390039BD1
:105284001B781A46039B9B7901339A4203D1039BF3
:105294009B78012B2FD0039B9B78012B07D9039B71
:1052A4009B78013BDBB219460198FFF729FF039B6A
:1052B4001A78039B9B799A420CD9039B1A78039B17
:1052C4009B79D31ADBB2013BDBB219460198FFF795
:1052D400E7FE0BE0039B9A79039B1B78D31ADBB29E
:1052E4000133DBB219460198FFF7F2FE019B9B687C
:1052F4000022DA7400E000BF05B05DF804FB00B5DD
:1053040085B001900198FFF7D9FD0390039B1A78AB
:10531400039B5B789A4205D1039B9A78039BDB78C5
:105324009A4231D0039BDA78039B9B789A4209D93D
:10533400039BDA78039B9B78D31ADBB21946019856
:10534400FFF7F6FE039B1A78039B5B789A420AD90F
:10535400039B1A78039B5B78D31ADBB21946019836
:10536400FFF79EFE09E0039B5A78039B1B78D31A30
:10537400DBB219460198FFF7ABFE019B9B68019ACB
:105384009268927CDA7400E000BF05B05DF804FB1B
:1053940000B587B001900023ADF816300023ADF8B6
:1053A400143000238DF8133000238DF80B30019B4B
:1053B4009B68943380220021184608F031FC019B3D
:1053C4001B697849184603F09BFB019B1B6918462F
:1053D40003F074FB0023ADF81030D7E003AB0DF1FC
:1053E4000B0101220198FFF7BBFC039B002B04D1A6
:1053F40040F2E730FFF79EFBBFE09DF80B301B2B1C
:1054040006D0019B9B6893F894301B2B40F0B4802A
:105414009DF80B30522B40F09580019B9A689DF8C3
:1054240013301344002283F89420019B9B6893F863
:1054340095305B2B06D0019B9B68002283F8942057
:105444000B23AAE002238DF813301CE0BDF81430BE
:105454001A46920013445B009AB2019B99689DF826
:105464001330581C8DF813000B4493F894309BB2FE
:1054740013449BB2303BADF814309DF91330002B2C
:1054840001DA0C2389E0019B9A689DF813301344D8
:1054940093F894303B2BD9D19DF8133001338DF818
:1054A40013309DF91330002B1EDA0C2375E0BDF880
:1054B40016301A46920013445B009AB2019B996815
:1054C4009DF81330581C8DF813000B4493F8943056
:1054D4009BB213449BB2303BADF816309DF91330A8
:1054E400002B01DA0C2358E0019B9A689DF81330D5
:1054F400134493F89430002BD9D1BDF81630FA2B0D
:1055040004D9019B9B68FA221A7205E0019B9B68EF
:10551400BDF81620D2B21A72BDF81430FA2B04D991
:10552400019B9B68FA229A7205E0019B9B68BDF877
:105534001420D2B29A72019B9B68002283F89420B3
:1055440000232AE0019B9A689DF813309DF80B1004
:1055540013440A4683F894209DF8133001338DF8E0
:1055640013309DF81330092B07D9019B9B68002247
:1055740083F89420042310E000BF039B002B7FF4E6
:105584002DAFBDF810300133ADF81030BDF8103038
:10559400B3F57A7FFFF422AF0D23184607B05DF808
:1055A40004FB00BFB0F8000000B587B0039002917F
:1055B4000192029B002B04D12A4940F24F20FFF7AD
:1055C4008DF8019B002B04D126494FF41470FFF78A
:1055D40085F80398FFF7DCFE0346002B18D1039BE4
:1055E4009B681B7AADF81630039B9B689B7AADF8D9
:1055F4001430FA210398FFF76BFDFA210398FFF7A3
:1056040097FD0398FFF7C4FE0346002B24D101E065
:10561400062322E0039B9B681A7A029B1A70039B61
:105624009B689A7A019B1A70029B1A78BDF816300F
:10563400DBB2D31ADBB219460398FFF731FD019BA5
:105644001A78BDF81430DBB2D31ADBB219460398CA
:10565400FFF756FD002300E00623184607B05DF867
:1056640004FB00BFA8F2000000B585B001900B4612
:105674008DF803309DF80330002B2ED0019B9B68DE
:10568400DB7B9DF803209A4234D01B238DF808302D
:105694005B238DF8093031238DF80A303B238DF8D4
:1056A4000B3033238DF80C309DF803302F33DBB2ED
:1056B4008DF80D306D238DF80E3000238DF80F30EA
:1056C400019B9B689DF80320DA73019B1B6902AA66
:1056D4000A49184603F014FA0DE0019B9B689DF8F3
:1056E4000320DA73019B1B69054A0449184603F039
:1056F40007FA00E000BF05B05DF804FB00F300000A
:10570400B8F8000000B585B001900B468DF8033061
:105714009DF80330002B29D0019B9B681B7C9DF8CE
:1057240003209A4221D01B238DF808305B238DF887
:10573400093034238DF80A309DF803302F33DBB25F
:105744008DF80B306D238DF80C3000238DF80D305F
:10575400019B9B689DF803201A74019B1B6902AA94
:105764000449184603F0CCF900E000BF05B05DF829
:1057740004FB00BF00F3000000B583B0019000916A
:10578400019B9B680F3302221946009808F01EFA09
:1057940000BF03B05DF804FB00B583B00190009135
:1057A400009B1B7819460198FFF75EFF009B5B780E
:1057B40019460198FFF7A6FF00BF03B05DF804FB8C
:1057C40000B585B001900198FFF778FB0390039B27
:1057D4001B781A46039B9B7901339A4203D1039B9E
:1057E4009B78012B1FD0039B1B78012B10D1012127
:1057F4000198FFF785FC039B5B7919460198FFF735
:1058040067FC019B9B68DA7C013AD2B2DA740BE044
:1058140001210198FFF744FC019B9B68DA7C013A63
:10582400D2B2DA7400E000BF05B05DF804FB00B545
:1058340085B001900198FFF741FB0390039B1A7810
:10584400039B5B789A4205D1039B9A78039BDB7890
:105854009A4221D0039B1A78039B5B799A4210D118
:1058640001210198FFF764FC039B5B7919460198B9
:10587400FFF716FC019B9B68DA7C0132D2B2DA7422
:105884000BE001210198FFF723FC019B9B68DA7C64
:105894000132D2B2DA7400E000BF05B05DF804FB57
:1058A40082B001900B468DF80330019B9B689B7C72
:1058B4007E2B1BD8019B9968019B9B68DA7C501C4A
:1058C400C0B2D87413460B449DF803201A75019B8B
:1058D4009B68019A9268D27C134400221A75019B3A
:1058E4009B689A7C0132D2B29A7400E000BF02B085
:1058F4007047000000B587B001900B468DF8033067
:10590400019B9B6893F83D31C3F30003DBB2002B8A
:1059140014BF012300238DF81730019B9B689A7CE8
:10592400019B9B68DB7CD31A8DF816309DF81730E9
:1059340083F00103DBB2002B20D0019B9B689B7C8E
:105944007E2B00F2DA809DF81630002B20D0019BCC
:105954009A68019B9B68DB7C013310331344181D48
:10596400019B9A68019B9B68DB7C103313440433CE
:105974009DF81620194607F035FF09E0019B9B6846
:105984009B7C7E2B04D99DF81630002B00F0B78049
:10599400019B9B68019A9268D27C13449DF8032072
:1059A4001A759DF8173083F00103DBB2002B0BD07E
:1059B400019B9A68019B9B68997C0131C9B29974D7
:1059C4009B7C134400221A759DF81630002B41D09D
:1059D4000198FFF773FA0490049B9A78049BDB7890
:1059E4009A420CBF012300238DF80F309DF80F302D
:1059F400002B17D0019B9A68019B9B68DB7C1033BA
:105A040013440433404A0821019801F0F1FD9DF844
:105A140017309DF81620D31ADBB219460198FFF708
:105A24003FFB2DE00198FFF7C9FA019B9A68019B9F
:105A34009B68DB7C103313440433334A08210198F8
:105A440001F0D6FD0198FFF7DFFA01210198FFF775
:105A54003FFB15E09DF81730002B0BD0019B9A6893
:105A6400019B9B68997C0131C9B299749B7C134456
:105A740000221A759DF8033019460198FFF75CF966
:105A8400019B9B68DA7C0132D2B2DA740198FFF789
:105A9400B1F80346002B03D00198FFF7DBFA2FE09F
:105AA4000198FFF7C5F80346002B29D00198FFF7AA
:105AB40005FA0290029BDA78029B9B78D31ADBB238
:105AC400013BDBB219460198FFF732FB0198FFF75F
:105AD400C1FA029BDA78029B9B78D31ADBB219468F
